{
  "_format": "hh-sol-artifact-1",
  "contractName": "votingSystem",
  "sourceName": "contracts/votingSystem.sol",
  "abi": [
    {
      "inputs": [
        {
          "internalType": "string[]",
          "name": "candidates_name",
          "type": "string[]"
        }
      ],
      "stateMutability": "nonpayable",
      "type": "constructor"
    },
    {
      "inputs": [],
      "name": "admin",
      "outputs": [
        {
          "internalType": "address",
          "name": "",
          "type": "address"
        }
      ],
      "stateMutability": "view",
      "type": "function"
    },
    {
      "inputs": [
        {
          "internalType": "uint256",
          "name": "",
          "type": "uint256"
        }
      ],
      "name": "candidates",
      "outputs": [
        {
          "internalType": "string",
          "name": "name",
          "type": "string"
        },
        {
          "internalType": "uint256",
          "name": "voteCount",
          "type": "uint256"
        }
      ],
      "stateMutability": "view",
      "type": "function"
    },
    {
      "inputs": [],
      "name": "getWinner",
      "outputs": [
        {
          "internalType": "string",
          "name": "",
          "type": "string"
        }
      ],
      "stateMutability": "view",
      "type": "function"
    },
    {
      "inputs": [
        {
          "internalType": "address",
          "name": "",
          "type": "address"
        }
      ],
      "name": "hasvoted",
      "outputs": [
        {
          "internalType": "bool",
          "name": "",
          "type": "bool"
        }
      ],
      "stateMutability": "view",
      "type": "function"
    },
    {
      "inputs": [
        {
          "internalType": "uint256",
          "name": "candidate_index",
          "type": "uint256"
        }
      ],
      "name": "vote",
      "outputs": [],
      "stateMutability": "nonpayable",
      "type": "function"
    }
  ],
  "bytecode": "0x608060405234801561001057600080fd5b506040516115c13803806115c18339818101604052810190610032919061036a565b336000806101000a81548173ffffffffffffffffffffffffffffffffffffffff021916908373ffffffffffffffffffffffffffffffffffffffff16021790555060005b8151811015610108576002604051806040016040528084848151811061009e5761009d6103b3565b5b602002602001015181526020016000815250908060018154018082558091505060019003906000526020600020906002020160009091909190915060008201518160000190816100ee9190610603565b506020820151816001015550508080600101915050610075565b50506106d5565b6000604051905090565b600080fd5b600080fd5b600080fd5b6000601f19601f8301169050919050565b7f4e487b7100000000000000000000000000000000000000000000000000000000600052604160045260246000fd5b61017182610128565b810181811067ffffffffffffffff821117156101905761018f610139565b5b80604052505050565b60006101a361010f565b90506101af8282610168565b919050565b600067ffffffffffffffff8211156101cf576101ce610139565b5b602082029050602081019050919050565b600080fd5b600080fd5b600067ffffffffffffffff82111561020557610204610139565b5b61020e82610128565b9050602081019050919050565b60005b8381101561023957808201518184015260208101905061021e565b60008484015250505050565b6000610258610253846101ea565b610199565b905082815260208101848484011115610274576102736101e5565b5b61027f84828561021b565b509392505050565b600082601f83011261029c5761029b610123565b5b81516102ac848260208601610245565b91505092915050565b60006102c86102c3846101b4565b610199565b905080838252602082019050602084028301858111156102eb576102ea6101e0565b5b835b8181101561033257805167ffffffffffffffff8111156103105761030f610123565b5b80860161031d8982610287565b855260208501945050506020810190506102ed565b5050509392505050565b600082601f83011261035157610350610123565b5b81516103618482602086016102b5565b91505092915050565b6000602082840312156103805761037f610119565b5b600082015167ffffffffffffffff81111561039e5761039d61011e565b5b6103aa8482850161033c565b91505092915050565b7f4e487b7100000000000000000000000000000000000000000000000000000000600052603260045260246000fd5b600081519050919050565b7f4e487b7100000000000000000000000000000000000000000000000000000000600052602260045260246000fd5b6000600282049050600182168061043457607f821691505b602082108103610447576104466103ed565b5b50919050565b60008190508160005260206000209050919050565b60006020601f8301049050919050565b600082821b905092915050565b6000600883026104af7fffffffffffffffffffffffffffffffffffffffffffffffffffffffffffffffff82610472565b6104b98683610472565b95508019841693508086168417925050509392505050565b6000819050919050565b6000819050919050565b60006105006104fb6104f6846104d1565b6104db565b6104d1565b9050919050565b6000819050919050565b61051a836104e5565b61052e61052682610507565b84845461047f565b825550505050565b600090565b610543610536565b61054e818484610511565b505050565b5b818110156105725761056760008261053b565b600181019050610554565b5050565b601f8211156105b7576105888161044d565b61059184610462565b810160208510156105a0578190505b6105b46105ac85610462565b830182610553565b50505b505050565b600082821c905092915050565b60006105da600019846008026105bc565b1980831691505092915050565b60006105f383836105c9565b9150826002028217905092915050565b61060c826103e2565b67ffffffffffffffff81111561062557610624610139565b5b61062f825461041c565b61063a828285610576565b600060209050601f83116001811461066d576000841561065b578287015190505b61066585826105e7565b8655506106cd565b601f19841661067b8661044d565b60005b828110156106a35784890151825560018201915060208501945060208101905061067e565b868310156106c057848901516106bc601f8916826105c9565b8355505b6001600288020188555050505b505050505050565b610edd806106e46000396000f3fe608060405234801561001057600080fd5b50600436106100575760003560e01c80630121b93f1461005c5780632b499cab146100785780633477ee2e146100a85780638e7ea5b2146100d9578063f851a440146100f7575b600080fd5b61007660048036038101906100719190610a2a565b610115565b005b610092600480360381019061008d9190610ab5565b61044c565b60405161009f9190610afd565b60405180910390f35b6100c260048036038101906100bd9190610a2a565b61046c565b6040516100d0929190610bb7565b60405180910390f35b6100e1610528565b6040516100ee9190610be7565b60405180910390f35b6100ff6107a7565b60405161010c9190610c18565b60405180910390f35b600160003373ffffffffffffffffffffffffffffffffffffffff1673ffffffffffffffffffffffffffffffffffffffff16815260200190815260200160002060009054906101000a900460ff16156101a2576040517f08c379a000000000000000000000000000000000000000000000000000000000815260040161019990610c7f565b60405180910390fd5b60028054905081106101e9576040517f08c379a00000000000000000000000000000000000000000000000000000000081526004016101e090610ceb565b60405180910390fd5b600281815481106101fd576101fc610d0b565b5b9060005260206000209060020201600101600081548092919061021f90610d69565b919050555060018060003373ffffffffffffffffffffffffffffffffffffffff1673ffffffffffffffffffffffffffffffffffffffff16815260200190815260200160002060006101000a81548160ff0219169083151502179055506102ba6040518060400160405280600681526020017f566f7465723a0000000000000000000000000000000000000000000000000000815250336107cb565b6102f96040518060400160405280601a81526020017f566f74656420666f722063616e64696461746520696e6465783a00000000000081525082610867565b6103e56040518060400160405280600f81526020017f43616e646964617465204e616d653a00000000000000000000000000000000008152506002838154811061034657610345610d0b565b5b9060005260206000209060020201600001805461036290610de0565b80601f016020809104026020016040519081016040528092919081815260200182805461038e90610de0565b80156103db5780601f106103b0576101008083540402835291602001916103db565b820191906000526020600020905b8154815290600101906020018083116103be57829003601f168201915b5050505050610903565b6104496040518060400160405280601a81526020017f546f74616c20566f74657320666f722043616e6469646174653a0000000000008152506002838154811061043257610431610d0b565b5b906000526020600020906002020160010154610867565b50565b60016020528060005260406000206000915054906101000a900460ff1681565b6002818154811061047c57600080fd5b906000526020600020906002020160009150905080600001805461049f90610de0565b80601f01602080910402602001604051908101604052809291908181526020018280546104cb90610de0565b80156105185780601f106104ed57610100808354040283529160200191610518565b820191906000526020600020905b8154815290600101906020018083116104fb57829003601f168201915b5050505050908060010154905082565b6060600080600190505b6002805490508110156105a2576002818154811061055357610552610d0b565b5b9060005260206000209060020201600101546002838154811061057957610578610d0b565b5b9060005260206000209060020201600101541015610595578091505b8080600101915050610532565b5061068f6040518060400160405280600781526020017f57696e6e65723a00000000000000000000000000000000000000000000000000815250600283815481106105f0576105ef610d0b565b5b9060005260206000209060020201600001805461060c90610de0565b80601f016020809104026020016040519081016040528092919081815260200182805461063890610de0565b80156106855780601f1061065a57610100808354040283529160200191610685565b820191906000526020600020905b81548152906001019060200180831161066857829003601f168201915b5050505050610903565b6106f36040518060400160405280600681526020017f566f7465733a0000000000000000000000000000000000000000000000000000815250600283815481106106dc576106db610d0b565b5b906000526020600020906002020160010154610867565b6002818154811061070757610706610d0b565b5b9060005260206000209060020201600001805461072390610de0565b80601f016020809104026020016040519081016040528092919081815260200182805461074f90610de0565b801561079c5780601f106107715761010080835404028352916020019161079c565b820191906000526020600020905b81548152906001019060200180831161077f57829003601f168201915b505050505091505090565b60008054906101000a900473ffffffffffffffffffffffffffffffffffffffff1681565b61086382826040516024016107e1929190610e11565b6040516020818303038152906040527f319af333000000000000000000000000000000000000000000000000000000007bffffffffffffffffffffffffffffffffffffffffffffffffffffffff19166020820180517bffffffffffffffffffffffffffffffffffffffffffffffffffffffff838183161783525050505061099f565b5050565b6108ff828260405160240161087d929190610bb7565b6040516020818303038152906040527fb60e72cc000000000000000000000000000000000000000000000000000000007bffffffffffffffffffffffffffffffffffffffffffffffffffffffff19166020820180517bffffffffffffffffffffffffffffffffffffffffffffffffffffffff838183161783525050505061099f565b5050565b61099b8282604051602401610919929190610e41565b6040516020818303038152906040527f4b5c4277000000000000000000000000000000000000000000000000000000007bffffffffffffffffffffffffffffffffffffffffffffffffffffffff19166020820180517bffffffffffffffffffffffffffffffffffffffffffffffffffffffff838183161783525050505061099f565b5050565b6109b6816109ae6109b96109da565b63ffffffff16565b50565b60006a636f6e736f6c652e6c6f679050600080835160208501845afa505050565b6109e5819050919050565b6109ed610e78565b565b600080fd5b6000819050919050565b610a07816109f4565b8114610a1257600080fd5b50565b600081359050610a24816109fe565b92915050565b600060208284031215610a4057610a3f6109ef565b5b6000610a4e84828501610a15565b91505092915050565b600073ffffffffffffffffffffffffffffffffffffffff82169050919050565b6000610a8282610a57565b9050919050565b610a9281610a77565b8114610a9d57600080fd5b50565b600081359050610aaf81610a89565b92915050565b600060208284031215610acb57610aca6109ef565b5b6000610ad984828501610aa0565b91505092915050565b60008115159050919050565b610af781610ae2565b82525050565b6000602082019050610b126000830184610aee565b92915050565b600081519050919050565b600082825260208201905092915050565b60005b83811015610b52578082015181840152602081019050610b37565b60008484015250505050565b6000601f19601f8301169050919050565b6000610b7a82610b18565b610b848185610b23565b9350610b94818560208601610b34565b610b9d81610b5e565b840191505092915050565b610bb1816109f4565b82525050565b60006040820190508181036000830152610bd18185610b6f565b9050610be06020830184610ba8565b9392505050565b60006020820190508181036000830152610c018184610b6f565b905092915050565b610c1281610a77565b82525050565b6000602082019050610c2d6000830184610c09565b92915050565b7f416c726561647920766f74656400000000000000000000000000000000000000600082015250565b6000610c69600d83610b23565b9150610c7482610c33565b602082019050919050565b60006020820190508181036000830152610c9881610c5c565b9050919050565b7f496e76616c69642063616e64696461746520696e646578000000000000000000600082015250565b6000610cd5601783610b23565b9150610ce082610c9f565b602082019050919050565b60006020820190508181036000830152610d0481610cc8565b9050919050565b7f4e487b7100000000000000000000000000000000000000000000000000000000600052603260045260246000fd5b7f4e487b7100000000000000000000000000000000000000000000000000000000600052601160045260246000fd5b6000610d74826109f4565b91507fffffffffffffffffffffffffffffffffffffffffffffffffffffffffffffffff8203610da657610da5610d3a565b5b600182019050919050565b7f4e487b7100000000000000000000000000000000000000000000000000000000600052602260045260246000fd5b60006002820490506001821680610df857607f821691505b602082108103610e0b57610e0a610db1565b5b50919050565b60006040820190508181036000830152610e2b8185610b6f565b9050610e3a6020830184610c09565b9392505050565b60006040820190508181036000830152610e5b8185610b6f565b90508181036020830152610e6f8184610b6f565b90509392505050565b7f4e487b7100000000000000000000000000000000000000000000000000000000600052605160045260246000fdfea2646970667358221220f3ff5bf20b6fe88e04c8095900c5a02fab8f57af84c149a84102a8bdb6b93c5464736f6c634300081c0033",
  "linkReferences": {},
  "deployedLinkReferences": {}
}