{
  "_format": "hh-sol-artifact-1",
  "contractName": "simple",
  "sourceName": "contracts/simple.sol",
  "abi": [
    {
      "anonymous": false,
      "inputs": [
        {
          "indexed": false,
          "internalType": "uint256",
          "name": "newValue",
          "type": "uint256"
        }
      ],
      "name": "ValueChanged",
      "type": "event"
    },
    {
      "inputs": [],
      "name": "getValue",
      "outputs": [
        {
          "internalType": "uint256",
          "name": "",
          "type": "uint256"
        }
      ],
      "stateMutability": "view",
      "type": "function"
    },
    {
      "inputs": [
        {
          "internalType": "uint256",
          "name": "_value",
          "type": "uint256"
        }
      ],
      "name": "setValue",
      "outputs": [],
      "stateMutability": "nonpayable",
      "type": "function"
    }
  ],
  "bytecode": "0x6080604052348015600f57600080fd5b506103a18061001f6000396000f3fe608060405234801561001057600080fd5b50600436106100365760003560e01c8063209652551461003b5780635524107714610059575b600080fd5b610043610075565b6040516100509190610203565b60405180910390f35b610073600480360381019061006e919061024f565b61007e565b005b60008054905090565b6100bd6040518060400160405280601181526020017f53657474696e672076616c756520746f3a000000000000000000000000000000815250826100fe565b806000819055507f93fe6d397c74fdf1402a8b72e47b68512f0510d7b98a4bc4cbdf6ac7108b3c59816040516100f39190610203565b60405180910390a150565b610196828260405160240161011492919061030c565b6040516020818303038152906040527fb60e72cc000000000000000000000000000000000000000000000000000000007bffffffffffffffffffffffffffffffffffffffffffffffffffffffff19166020820180517bffffffffffffffffffffffffffffffffffffffffffffffffffffffff838183161783525050505061019a565b5050565b6101b1816101a96101b46101d5565b63ffffffff16565b50565b60006a636f6e736f6c652e6c6f679050600080835160208501845afa505050565b6101e0819050919050565b6101e861033c565b565b6000819050919050565b6101fd816101ea565b82525050565b600060208201905061021860008301846101f4565b92915050565b600080fd5b61022c816101ea565b811461023757600080fd5b50565b60008135905061024981610223565b92915050565b6000602082840312156102655761026461021e565b5b60006102738482850161023a565b91505092915050565b600081519050919050565b600082825260208201905092915050565b60005b838110156102b657808201518184015260208101905061029b565b60008484015250505050565b6000601f19601f8301169050919050565b60006102de8261027c565b6102e88185610287565b93506102f8818560208601610298565b610301816102c2565b840191505092915050565b6000604082019050818103600083015261032681856102d3565b905061033560208301846101f4565b9392505050565b7f4e487b7100000000000000000000000000000000000000000000000000000000600052605160045260246000fdfea2646970667358221220cd1a6bc00c1cac7351b7cb53da000e9698a76b83a583abc39359501062dd41f064736f6c634300081c0033",
  "linkReferences": {},
  "deployedLinkReferences": {}
}