{
  "_format": "hh-sol-artifact-1",
  "contractName": "EtherWallet",
  "sourceName": "contracts/etherWallet.sol",
  "abi": [
    {
      "inputs": [],
      "stateMutability": "nonpayable",
      "type": "constructor"
    },
    {
      "inputs": [
        {
          "internalType": "address",
          "name": "",
          "type": "address"
        }
      ],
      "name": "balances",
      "outputs": [
        {
          "internalType": "uint256",
          "name": "",
          "type": "uint256"
        }
      ],
      "stateMutability": "view",
      "type": "function"
    },
    {
      "inputs": [],
      "name": "deposit",
      "outputs": [],
      "stateMutability": "payable",
      "type": "function"
    },
    {
      "inputs": [],
      "name": "getContractBalance",
      "outputs": [
        {
          "internalType": "uint256",
          "name": "",
          "type": "uint256"
        }
      ],
      "stateMutability": "view",
      "type": "function"
    },
    {
      "inputs": [],
      "name": "owner",
      "outputs": [
        {
          "internalType": "address",
          "name": "",
          "type": "address"
        }
      ],
      "stateMutability": "view",
      "type": "function"
    },
    {
      "inputs": [
        {
          "internalType": "uint256",
          "name": "amount",
          "type": "uint256"
        }
      ],
      "name": "withdraw",
      "outputs": [],
      "stateMutability": "nonpayable",
      "type": "function"
    },
    {
      "inputs": [],
      "name": "withdrawAll",
      "outputs": [],
      "stateMutability": "nonpayable",
      "type": "function"
    },
    {
      "stateMutability": "payable",
      "type": "receive"
    }
  ],
  "bytecode": "0x6080604052348015600f57600080fd5b50336000806101000a81548173ffffffffffffffffffffffffffffffffffffffff021916908373ffffffffffffffffffffffffffffffffffffffff1602179055506109f48061005f6000396000f3fe6080604052600436106100595760003560e01c806327e235e3146100ba5780632e1a7d4d146100f75780636f9fb98a14610120578063853828b61461014b5780638da5cb5b14610162578063d0e30db01461018d576100b5565b366100b55734600160003373ffffffffffffffffffffffffffffffffffffffff1673ffffffffffffffffffffffffffffffffffffffff16815260200190815260200160002060008282546100ad9190610554565b925050819055005b600080fd5b3480156100c657600080fd5b506100e160048036038101906100dc91906105eb565b610197565b6040516100ee9190610627565b60405180910390f35b34801561010357600080fd5b5061011e6004803603810190610119919061066e565b6101af565b005b34801561012c57600080fd5b50610135610314565b6040516101429190610627565b60405180910390f35b34801561015757600080fd5b5061016061031c565b005b34801561016e57600080fd5b5061017761045c565b60405161018491906106aa565b60405180910390f35b610195610480565b005b60016020528060005260406000206000915090505481565b600081116101f2576040517f08c379a00000000000000000000000000000000000000000000000000000000081526004016101e990610748565b60405180910390fd5b80600160003373ffffffffffffffffffffffffffffffffffffffff1673ffffffffffffffffffffffffffffffffffffffff168152602001908152602001600020541015610274576040517f08c379a000000000000000000000000000000000000000000000000000000000815260040161026b906107b4565b60405180910390fd5b80600160003373ffffffffffffffffffffffffffffffffffffffff1673ffffffffffffffffffffffffffffffffffffffff16815260200190815260200160002060008282546102c391906107d4565b925050819055503373ffffffffffffffffffffffffffffffffffffffff166108fc829081150290604051600060405180830381858888f19350505050158015610310573d6000803e3d6000fd5b5050565b600047905090565b60008054906101000a900473ffffffffffffffffffffffffffffffffffffffff1673ffffffffffffffffffffffffffffffffffffffff163373ffffffffffffffffffffffffffffffffffffffff16146103aa576040517f08c379a00000000000000000000000000000000000000000000000000000000081526004016103a19061087a565b60405180910390fd5b6000479050600081116103f2576040517f08c379a00000000000000000000000000000000000000000000000000000000081526004016103e99061090c565b60405180910390fd5b60008054906101000a900473ffffffffffffffffffffffffffffffffffffffff1673ffffffffffffffffffffffffffffffffffffffff166108fc829081150290604051600060405180830381858888f19350505050158015610458573d6000803e3d6000fd5b5050565b60008054906101000a900473ffffffffffffffffffffffffffffffffffffffff1681565b600034116104c3576040517f08c379a00000000000000000000000000000000000000000000000000000000081526004016104ba9061099e565b60405180910390fd5b34600160003373ffffffffffffffffffffffffffffffffffffffff1673ffffffffffffffffffffffffffffffffffffffff16815260200190815260200160002060008282546105129190610554565b92505081905550565b6000819050919050565b7f4e487b7100000000000000000000000000000000000000000000000000000000600052601160045260246000fd5b600061055f8261051b565b915061056a8361051b565b925082820190508082111561058257610581610525565b5b92915050565b600080fd5b600073ffffffffffffffffffffffffffffffffffffffff82169050919050565b60006105b88261058d565b9050919050565b6105c8816105ad565b81146105d357600080fd5b50565b6000813590506105e5816105bf565b92915050565b60006020828403121561060157610600610588565b5b600061060f848285016105d6565b91505092915050565b6106218161051b565b82525050565b600060208201905061063c6000830184610618565b92915050565b61064b8161051b565b811461065657600080fd5b50565b60008135905061066881610642565b92915050565b60006020828403121561068457610683610588565b5b600061069284828501610659565b91505092915050565b6106a4816105ad565b82525050565b60006020820190506106bf600083018461069b565b92915050565b600082825260208201905092915050565b7f576974686472617720616d6f756e74206d75737420626520677265617465722060008201527f7468616e207a65726f0000000000000000000000000000000000000000000000602082015250565b60006107326029836106c5565b915061073d826106d6565b604082019050919050565b6000602082019050818103600083015261076181610725565b9050919050565b7f496e73756666696369656e742062616c616e6365000000000000000000000000600082015250565b600061079e6014836106c5565b91506107a982610768565b602082019050919050565b600060208201905081810360008301526107cd81610791565b9050919050565b60006107df8261051b565b91506107ea8361051b565b925082820390508181111561080257610801610525565b5b92915050565b7f4f6e6c79206f776e65722063616e20776974686472617720616c6c2066756e6460008201527f7300000000000000000000000000000000000000000000000000000000000000602082015250565b60006108646021836106c5565b915061086f82610808565b604082019050919050565b6000602082019050818103600083015261089381610857565b9050919050565b7f4e6f2066756e647320617661696c61626c6520666f722077697468647261776160008201527f6c00000000000000000000000000000000000000000000000000000000000000602082015250565b60006108f66021836106c5565b91506109018261089a565b604082019050919050565b60006020820190508181036000830152610925816108e9565b9050919050565b7f4465706f73697420616d6f756e74206d7573742062652067726561746572207460008201527f68616e207a65726f000000000000000000000000000000000000000000000000602082015250565b60006109886028836106c5565b91506109938261092c565b604082019050919050565b600060208201905081810360008301526109b78161097b565b905091905056fea2646970667358221220e30a33a0a9ba9f11ea55d087f3f306173ab9e6368360e022c759c894e280b47264736f6c634300081c0033",
  "linkReferences": {},
  "deployedLinkReferences": {}
}